:020000040800F2
:1000000040760020290300080B4300080B38000845
:1000100009430008190A00087D5F0008000000007D
:10002000000000000000000000000000690200085D
:10003000B90D000800000000C5020008255900089D
:100040004303000843030008430300084303000878
:100050004303000843030008BB0D000843030008E6
:1000600043030008C10D0008C70D00084303000842
:10007000450A00084303000843030008430300083F
:100080004303000843030008430300084303000838
:100090001D0A00084303000843030008CD0D0008B3
:1000A0004303000843030008430300084303000818
:1000B0004303000843030008430300084303000808
:1000C00043030008430300084303000843030008F8
:1000D00043030008595F000843030008655F0008F8
:1000E00043030008430300084303000843030008D8
:1000F00043030008430300084303000843030008C8
:1001000043030008430300084303000843030008B7
:1001100043030008430300084303000843030008A7
:1001200043030008510A00085D0A0008310D000869
:100130004303000843030008430300084303000887
:10014000290A00084303000843030008430300088A
:10015000430300084303000843030008715F0008DD
:100160004303000843030008430300084303000857
:100170004303000843030008430300080000000095
:10018000430300084303000800F002F800F05CF8A5
:100190000AA090E8000C82448344AAF10107DA45E2
:1001A00001D100F051F8AFF2090EBAE80F0013F0D8
:1001B000010F18BFFB1A43F00103184770920000AB
:1001C000909200000A444FF0000C10F8013B13F02D
:1001D000070408BF10F8014B1D1108BF10F8015BA0
:1001E000641E05D010F8016B641E01F8016BF9D193
:1001F00013F0080F1EBF10F8014BAD1C0C1B09D1EA
:100200006D1E58BF01F801CBFAD505E014F8016B5B
:1002100001F8016B6D1EF9D59142D6D370470000ED
:100220000023002400250026103A28BF78C1FBD8FF
:10023000520728BF30C148BF0B6070471FB508F098
:10024000E3FF1FBD10B510BD00F002FA1146FFF725
:10025000F5FF07F071FA00F020FA03B4FFF7F2FFA0
:1002600003BC00F023FA00002C4B19680868B0E8C2
:10027000F04F80F30988BFF36F8F4FF0000080F3D9
:10028000118870470000000008480068006880F38B
:1002900008884FF0000080F3148862B661B6BFF39F
:1002A0004F8FBFF36F8F00DF00BF00BF08ED00E08E
:1002B000DFF80C00016841F470010160704700BF75
:1002C00088ED00E0EFF30980BFF36F8F134B1A68DE
:1002D0001EF0100F08BF20ED108A20E9F04F1060CB
:1002E00009B44FF0500080F31188BFF34F8FBFF374
:1002F0006F8F08F003FA4FF0000080F3118809BCFB
:1003000019680868B0E8F04F1EF0100F08BFB0EC95
:10031000108A80F30988BFF36F8F704718000020A0
:10032000EFF30580704700000948804709480047FF
:10033000FEE7FEE7FEE7FEE7FEE7FEE7FEE7FEE795
:10034000FEE7FEE704480549054A064B70470000F2
:10035000D159000889010008407000204076002033
:10036000407200204072002053EA020C00F06980C5
:100370002DE9F04B4FF00006002B1FBFB3FA83F5B9
:1003800003FA05F424FA05F65E4012BF1643B2FAEA
:1003900082F502FA05F4C5F120051EBF22FA05FC1C
:1003A00044EA0C04203556EA044C4FEA144418BFC2
:1003B000641C4FF000084FF00009904271EB030CF1
:1003C00039D3002919BFB1FA81F701FA07F6B0FA5B
:1003D00080F700FA07F6C7F120071EBF20FA07FCD6
:1003E00046EA0C062037B6FBF4FCA7EB0507103FE6
:1003F00007F01F0BCBF120060CFA0BFB2CFA06F6CC
:1004000044BFB3460026202FA4BF5E464FF0000B2A
:100410005BEA060C08BF4FF0010B19EB0B09ABFBB5
:10042000027C48EB0608C01B06FB02CC0BFB03CC8E
:1004300071EB0C01C1E70B46024641464846BDE858
:10044000F08B13B54FF000004FF00001AFF30080C8
:10045000BDE81C40704710B5431C02E010F8011BBA
:1004600071B18107FAD14FF0013202C88C1A8C4366
:1004700014EAC211F9D0C01A0A0603D0C01E10BD7A
:10048000C01A10BD0A0401D0801E10BD0902FCD0A4
:10049000401E10BD032A40F2308010F0030C00F023
:1004A000158011F8013BBCF1020F624498BF11F8AE
:1004B00001CB00F8013B38BF11F8013BA2F1040267
:1004C00098BF00F801CB38BF00F8013B11F00303DF
:1004D00000F02580083AC0F0088051F8043B083A43
:1004E00051F804CBA0E80810F5E7121D5CBF51F8E5
:1004F000043B40F8043BAFF30080D20724BF11F85F
:10050000013B11F801CB48BF11F8012B24BF00F8C3
:10051000013B00F801CB48BF00F8012B704710B534
:10052000203AC0F00B80B1E81850203AA0E81850EB
:10053000B1E81850A0E81850BFF4F5AF5FEA027CAC
:1005400024BFB1E81850A0E8185044BF18C918C01B
:10055000BDE810405FEA827C24BF51F8043B40F8BC
:10056000043B08BF7047D20728BF31F8023B48BFA1
:1005700011F8012B28BF20F8023B48BF00F8012BDF
:10058000704702F0FF0343EA032242EA024200F00E
:1005900037B84FF0000200B513469446964620390E
:1005A00022BFA0E80C50A0E80C50B1F12001BFF42C
:1005B000F7AF090728BFA0E80C5048BF0CC05DF892
:1005C00004EB890028BF40F8042B08BF704748BFE0
:1005D00020F8022B11F0804F18BF00F8012B704754
:1005E00070477047704710B500F02AF8006810BDDA
:1005F00010B5044600F024F8046010BD4FF000026E
:100600000429C0F0128010F0030C3FF4C4AFCCF109
:10061000040CBCF1020F18BF00F8012BA8BF20F892
:10062000022BA1EB0C01FFF7B6BF5FEAC17C24BF30
:1006300000F8012B00F8012B48BF00F8012B704790
:1006400000487047E06F002000487047E06F0020CE
:100650007546FFF7F9FFAE4605006946534620F0A0
:100660000700854618B020B5FFF76CFEBDE82040B6
:100670004FF000064FF000074FF000084FF0000B5E
:1006800021F00701AC46ACE8C009ACE8C009ACE811
:10069000C009ACE8C0098D46704710B50446AFF3F9
:1006A00000802046BDE81040FFF7D7BD0149182063
:1006B000ABBEFEE7260002007047000001221021B9
:1006C000014801F065BB000000000240002210213B
:1006D000014801F05DBB00000000024070470000CF
:1006E00001221146014801F053BB00000004024002
:1006F00000220121014801F04BBB00000004024030
:1007000030B5437804781B021BB2234300EE103A45
:100710001B4CB8EEC00AD4ED000A20EE200A81ED91
:10072000000AC37885781B021BB22B4300EE103AF7
:10073000D4ED000AB8EEC00A20EE200A81ED010ACD
:10074000437904791B021BB2234300EE103AB8EE42
:10075000C00A20EE200ADFED0B0A81ED020A017AC1
:10076000C3790904807941EA0321014300EE101A9C
:10077000B8EE400A20EE200A82ED000A30BD0000EB
:100780009400002000401C42704707F011B806F0AA
:1007900065BE000010B542780378120212B21A4307
:1007A00000EE102A124BB8EEC00AD3ED010A20EE7B
:1007B000200A81ED000AC2788478120212B2224324
:1007C00000EE102AD3ED010AB8EEC00A20EE200A8E
:1007D00081ED010A42790079120212B2024300EE61
:1007E000102AB8EEC00A20EE200A81ED020A10BDE0
:1007F0009400002010B5FFF771FFFFF7C5FF06F06A
:10080000E5FB08B1802402E006F04CFB044606F04C
:10081000ABFD10B144F0400010BD06F037FD2043A1
:1008200010BD00002DE9FC410746002016460D468C
:1008300000900190FFF74AFF922000F0BDF80622D9
:100840006946122000F09AF8FFF738FF9DF8010082
:100850009DF80010000200B2084300EE100A464C5A
:10086000B8EEC00AD4ED000A20EE200A85ED000A99
:100870009DF803009DF80210000200B2084300EE4C
:10088000100AD4ED000AB8EEC00A20EE200A85ED69
:10089000010A9DF805009DF80410000200B208430B
:1008A00000EE100AB8EEC00A20EE200A85ED020A1A
:1008B000FFF71EFF08226946002000F05FF8FFF7EF
:1008C0000FFF9DF800000F2830D19DF803009DF820
:1008D0000210000200B2084300EE100AD4ED010A33
:1008E000B8EEC00A20EE200A87ED000A9DF8050048
:1008F0009DF80410000200B2084300EE100AD4ED87
:10090000010AB8EEC00A20EE200A87ED010A9DF820
:1009100007009DF80610000200B2084300EE100A1E
:10092000B8EEC00A20EE200A87ED020AFFF7CEFEDD
:10093000A22000F041F802226946222000F01EF8B1
:10094000FFF7BCFE9DF800009DF80110C00040EAD2
:100950005110B0F5806F01DBA0F5006000EE100AC9
:10096000B4EE001AF8EEC00AB3EE070A00EE810AF0
:1009700086ED000ABDE8FC819400002070B51446A5
:100980000D4640F0800000F017F806E0552000F01A
:1009900013F8641E05F8010BE4B2002CF6D170BD0B
:1009A00010B50C4640F0800000F006F8552000F02D
:1009B00003F8207010BD000001B582B04FF47A70CA
:1009C0000090012301AA02A9024802F013F89DF841
:1009D00004000EBDAC08002002784078D20042EA44
:1009E0005010B0F5806F01DBA0F5006000EE100A3A
:1009F000B4EE001AF8EEC00AB3EE070A00EE810A60
:100A000081ED000A704710B50C46FFF7D5FF204670
:100A1000BDE81040FFF7D0BFFEE70000014800F03E
:100A2000C4BD000008080020014800F0BEBD000061
:100A300030080020884201DA084670479042FCDD09
:100A400010467047014800F015BF0000740B0020ED
:100A5000014800F00FBF0000D40B00202DE9F05F2B
:100A6000AB48AC4BAC4CC06CAA4DAB4EA94F006828
:100A7000A849DFF8A492DFF89CA2DFF89CB2DFF867
:100A800094E2A54A483B603418351836303F09F1E6
:100A900078090AF1300A4FF4006C0BF1300BAEF11B
:100AA000180E884223D99B49543926E0A84233D1F5
:100AB0004FF020080AE0504535D1E04606E000BF7F
:100AC0004FF4001802E000BF4FF0006811EA080F71
:100AD0007CD09049884253D9904205D0984203D0A7
:100AE000A04201D0A8422FD14FF0200C45E08A4906
:100AF000A831884203D987495839096805E08649F1
:100B0000483188428549F8D949689042D0D0984206
:100B1000CED0A042CCD0C9E7B042CED0B842CCD0E3
:100B20004845CAD0C7E75845CAD07045C8D0DFF895
:100B3000E88108F190084045C2D0DFF8D88108F17B
:100B400048084045C0D1BBE7B04216D0B84214D0E7
:100B5000484512D0504510D0584509D0704507D0AF
:100B60006D499031884203D06A494831884202D1A8
:100B70004FF4001C01E04FF0006C66484C382AE04E
:100B80006549A831884229D9904205D0984203D0BE
:100B9000A04201D0A84202D14FF0200C19E0B0428F
:100BA00017D0B84215D0484513D0504511D05845FC
:100BB00009D0704507D058499031884203D0554933
:100BC0004831884203D14FF4001C02E09DE04FF011
:100BD000006C50485038C0F800C052E04E494831CF
:100BE000884227D9904205D0984203D0A04201D034
:100BF000A84202D14FF0200C18E0B04216D0B84203
:100C000014D0484512D0504510D0584509D07045F1
:100C100007D041499031884203D03E49483188424B
:100C200002D14FF4001C01E04FF0006C3B48C0F8CB
:100C30000CC026E0904205D0984203D0A04201D0DB
:100C4000A84202D14FF0200C18E0B04216D0B842B2
:100C500014D0484512D0504510D0584509D07045A1
:100C600007D02D499031884203D02A494831884223
:100C700002D14FF4001C01E04FF0006C2748C0F88F
:100C800008C0274C207880070CD5207820F002007F
:100C90002070207840F00400207001221146214885
:100CA00001F076F86078204D80070CD5607820F050
:100CB00002006070607840F0040060700122102132
:100CC000284601F065F8A07880070CD5A07820F0C0
:100CD0000200A070A07840F00400A0700122102152
:100CE000284601F055F806F023FC207840070CD583
:100CF000207820F004002070207840F00800207058
:100D00000A48016841F001010160BDE8F09F000060
:100D1000AC080020586402401060024000600240AD
:100D2000C80000200004024000000240103C0140C6
:100D3000014800F09FBD00006409002001681823ED
:100D4000CAB2103AB2FBF3F2054B6FF30901032A62
:100D50009B5CC36500D9091D81650846704700008A
:100D60004C92000810B5014600208B698A6A4FF04A
:100D7000C07453B1B3F5005F15D072B1012A0CD025
:100D8000022A0AD0032A09D104E01AB1012A06D0A6
:100D9000022A03D1C96AC90100D5012010BDC96A60
:100DA000A142FAD010BD002AF7D0012AF2D0022ABF
:100DB000F3D0032AF3D010BD7047012000F0E4BE49
:100DC000082000F0E1BE102000F0DEBE202000F080
:100DD000DBBE72B6FEE710B52DED068BB0EE618A74
:100DE000F0EE428AB0EE629AF0EE409AB0EE60AA5F
:100DF000F0EE41AA00F08AFB00F0D1FBB0EE403AE1
:100E0000F0EE492AB5EEC03AB0EE682AF0EE481A84
:100E1000B0EE6A1AF0EE4A0AB0EE690AF1EE10FA84
:100E200007D200F062FBBDEC068BBDE8104000F07D
:100E30009BBBBDEC068BBDE8104000F056BB1830E4
:100E400090EC040A7047000010B586B004461822E2
:100E500006496846FFF763FB6946204600F094F8B0
:100E6000204600F005F806B010BD00009092000882
:100E700010B5114C00F1180CB2EE040A1ECC8CE82F
:100E80001E0000218162C1620122016380F83420CA
:100E900080ED0E0A80F8401041648164C1640165F0
:100EA0004165816580F85C1001664269426680F8A0
:100EB0006810C0E91B1210BDA892000870B5054665
:100EC0002DED048BB6EE008AB0EE409A90ED081A34
:100ED000F0EE480A90ED090A41EE410AD0ED061AFB
:100EE00040EE400A21EE800AD0ED071A01EE810A99
:100EF00005F00EF9F0EE408AB0EE490A00F076FAFD
:100F000038EEC00A002460EE088AB0EE680A05F0E8
:100F100055FAB0EE408AB0EE680A05F029FE05F1F8
:100F20001800B1EE401AD0EC041AB0EE480A00EEF8
:100F3000904A60EE213A20EE024A60EE224A20EE0C
:100F4000030A40EEC23A00EE904A00EEA20A40EEDA
:100F5000C34A00EEA14A40EEE23A00EEC20A40EE79
:100F6000A14A00EE834A41EE433A01EE210A41EEE6
:100F7000024A01EE624A85ED090A1835C5EC033ACA
:100F8000BDEC048B70BD000070B504462DED028BE6
:100F90000D460878207091ED010A9FED348A84EDAA
:100FA000010A91ED020AB5EEC00AF1EE10FA02D183
:100FB000B0EE480A03E0DFED2E0A20EE200AF6EE3E
:100FC000008A84ED020A95ED030AB5EEC00AF1EE3F
:100FD00010FA02D1B0EE480A09E000F007FA05F075
:100FE000C7FD20EE280AF0EE000A05F08FFA84ED26
:100FF000030A95ED040AB5EEC00AF1EE10FA02D12B
:10100000B0EE480A09E000F0F1F905F0B1FD20EE7C
:10101000280AF0EE000A05F079FA84ED040A6869FE
:1010200060616066206795ED010AB5EEC00AF1EED9
:1010300010FA01D0686918B984ED038A84ED048A36
:1010400094F8340018B994ED010A84ED0E0A94ED79
:10105000010AF2EE040A30EEC00AF0EE080A80EE51
:10106000201A84ED0F1ABDEC028B70BDFFFF7F7F4D
:1010700048E17A3F2DE9F05F04462DED0E8B2830D4
:10108000F0EE61BAB0EE42CAF0EE62CAB0EE409A3B
:10109000B0EE64AAF0EEC91AB0EE43DAC0EC03BABF
:1010A000F0EE63DA94ED020AB0EE44EAF0EE608A04
:1010B000F4EEC01AB0EE418AF1EE10FA4FF0010BD7
:1010C0000DDCF0EEE80AF4EEC00AF1EE10FA06DCF0
:1010D000F0EEC80AF4EEC00AF1EE10FA0DDDD4E924
:1010E0000870D4E9065680462046FFF7C1FE04F199
:1010F000180080E8E00184F840B094F8340000253E
:10110000C8B1D4ED0E0A94ED0F0A40EE4A0AC4EDC0
:101110000E0A94ED010AF4EEC00AF1EE10FA04D3BF
:10112000B5EEC00AF1EE10FA05D184ED0E0A84F88E
:10113000345084F84050204602F0D6FAA846F0EE2B
:10114000409AF0EE60AAB0EE41BAC146CA4684F8B1
:101150005CB0B0EE6C1AF0EE4C0AB0EE6B0A00F028
:10116000DCF970BBB0EE6C1AF0EE4C0AB0EE6B0A14
:1011700000F0FAF9F0EE4B2AB0EE6A2AF0EE691AA6
:10118000FFF729FE04F1440080EC030A94F83400D0
:1011900040B900F0D5F9D4ED030AB4EEE00AF1EE5F
:1011A00010FA04D884F85C50206E093801E0206EF3
:1011B000401C2066616E884204DD656684F85C50E0
:1011C00002E00FE06169616600216269FFF732FCAD
:1011D000206694F85C0028B904F1440007C88046F2
:1011E000894692462E46374684F868B0B0EE4E1ACD
:1011F000F0EE6D0AB0EE4D0A00F08FF9A8BB204664
:1012000002F0B0FAF0EE40CAB0EE60CAF0EE41BAB9
:10121000F0EE4E2AB0EE6D2AF0EE4D1AB0EE4B1AFB
:10122000F0EE6A0AB0EE690A00F05FF900F09CF98E
:10123000F0EE6B2AB0EE4C2AF0EE6C1AFFF7CBFD05
:1012400004F1500080EC030A94F8340040B900F037
:1012500077F9D4ED040AB4EEE00AF1EE10FA05D8FD
:1012600084F86850E06E093802E018E0E06E401C37
:101270000346E066206F834203DD256784F86850EB
:1012800001E060692067002118466269FFF7D2FB20
:10129000E06694F8680010B904F15005E0CDB6EEB0
:1012A000000A00F0A3F8F0EE401AB0EE481AF0EE93
:1012B000680AB0EE490A00F050F9B0EE408AF0EE4C
:1012C000608AB0EE419A02EE907A02EE106A01EE68
:1012D000905A01EE10AA00EE909A00EE108A00F0EB
:1012E000FDF8D4ED0E1A00F038F9B0EE602AF0EEF9
:1012F000412AF0EE401AB0EE491AF0EE680AB0EE5C
:10130000480A00F0EBF894ED069A94ED078AD4EDC4
:10131000089AD4ED098AF0EE4A1A00F01EF968EE38
:10132000401A29EE002A69EE202A49EEE01A09EE59
:10133000812A48EE412A48EEC11A29EE011A48EEE8
:10134000802A08EEE02A08EE201A78EE020A09EE5A
:10135000C01A39EE210A79EEA21AB0EE608A84ED45
:10136000060AF0EE409A38EE811A29EEA90AF0EE4C
:10137000618AC4ED070AB0EE419A08EE080AC4ED8E
:10138000081A84ED091A08EEA80A09EE090A00F005
:1013900035F869EE800A28EE001A68EE801A29EE08
:1013A000000A84ED090A1834C4EC030ABDEC0E8B64
:1013B000BDE8F09F002110B5F0EE434A044604EE6C
:1013C000101A03EE901A03EE101AFFF753FE94F86A
:1013D0003400002806D02046BDE810409FED020AE8
:1013E000FFF76CBD10BD000000000000DFED020A39
:1013F00020EE200A7047000035FA8E3C10EE100AED
:101400009FED091A0749A1EB600020EE010A00EEEA
:10141000900A20EE201A9FED050A01EE600A20EEE8
:10142000200A704712141F5F12D3363FFF51D83F76
:1014300010B52DED088BB6EE008AB0EE40AA01EE95
:10144000418A2AEE200AF0EE609AB0EE419AF0EE60
:10145000618A01EE210AF0EE480A49EEE90A04F039
:1014600057FEDFED1BAAB0EE491AF0EE681A20EE27
:101470002ABA2AEE010AF0EE000A01EEE90A20EE8D
:10148000200A10EE100A10F1814F02D39FED110ACD
:1014900009E010EE100AB0F17E5F02DB9FED0E0A4C
:1014A00001E004F09FFD60EE2ABA08EEE88A2AEE19
:1014B000280A09EE890AF0EE480A04F029FE20EE17
:1014C0002A1AB0EE4B0AF0EE6B0ABDEC088B10BD89
:1014D000E02E6542DB0FC9BFDB0FC93F30EE210AAA
:1014E00070EE820A31EE221A7047B0EE603A61EE79
:1014F000210A63EE223A40EE620A41EE423A20EEC1
:10150000021A03EE611AB0EE630A704720EE210A58
:1015100060EE820A21EE221A7047B5EEC00AF1EEA3
:1015200010FA0BD1F5EEC00AF1EE10FA06D1B5EEC5
:10153000C01AF1EE10FA01D1012070470020704767
:1015400010B5F0EE412AB0EE602AF0EE401AFFF737
:10155000DDFFBDE8104000F022B820EE210A60EE69
:10156000A10A21EE211A704710B52DED048BF0EE83
:10157000418AB0EE608AB0EE409AFFF7E1FFFFF7D4
:101580003DFFF0EE401AB0EE681AF0EE480AB0EEF9
:10159000490ABDEC048BBDE81040FFF7DEBF30EE1A
:1015A000200A30EE010A704770472DE9F05F0546CA
:1015B000006800244669D0F804908768D0F80CB021
:1015C000D0F810A0D0F81880F10748D0F90714D04F
:1015D00001218160B80703D5284600F0EAF80CE045
:1015E000780702D54FF4006407E0380702D54FF4BE
:1015F000805402E0284600F0DBF8F80516D529688B
:101600004FF480708860B80503D5284600F0D3F801
:101610000CE0780502D544F4005407E0380502D503
:1016200044F4804402E0284600F0C4F8F80316D5DC
:1016300029684FF480308860B80303D5284600F04D
:10164000BCF80CE0780302D544F4004407E038030A
:1016500002D544F4803402E0284600F0ADF83007AB
:1016600007D55FEACB6004D52968102044F40074E4
:10167000C86070074FF0080707D55FEA0B7004D504
:101680002868C760284600F08EF8B00706D528689D
:10169000C068800702D0284600F086F8700607D59B
:1016A0005FEACA6004D52968102044F480640861A8
:1016B000B00607D55FEA0A7004D528680761284696
:1016C00000F073F8F00606D528680069800702D09C
:1016D000284600F06BF8B00308D55FEAC96005D56D
:1016E000296810204860284600F061F8F00307D50B
:1016F0005FEA097004D528684760284600F05EF864
:10170000300446D55FEA497040D5F00504D55FEA5C
:10171000C87001D044F00104B00504D55FEA8870B8
:1017200001D544F00204700504D55FEA487001D584
:1017300044F00404300529D518F0700F26D008F0C5
:101740007000402815D006DC102809D020280AD0C7
:10175000302816D10AE050280ED0602811D10EE0B2
:1017600044F008040DE044F010040AE044F02004C2
:1017700007E044F0400404E044F0800401E044F455
:1017800080742868816921F07001816129680420D2
:101790004860002C05D0686A204368622846FFF73D
:1017A00003FFBDE8F09F7047704770477047704770
:1017B00070477047704770477047704770472DE912
:1017C000F0410446876D00F0E9FA064694F83500CA
:1017D0000025022806D08020606584F8345001205E
:1017E000BDE8F0812068016821F0160101602068E1
:1017F000416921F080014161206C08B9A06C20B1E1
:101800002068016821F0080101602068016821F06A
:10181000010101600CE000F0C1FA801B052807D926
:1018200020206065032084F8350084F83450D7E721
:1018300020680068C007EED194F85C103F20884013
:10184000B860012084F8350084F834500020C7E7E0
:1018500090F83510022903D080214165012070479E
:10186000052180F835100068016821F00101016050
:10187000002070472DE9F84304464FF00009CDF8E9
:10188000009063484FF41651A56D0068B0FBF1F766
:101890002E6894F85C10082000FA01F131420FD054
:1018A00021680A6852070BD50A6822F004020A6010
:1018B00094F85C108840A860606D40F0010060659D
:1018C00094F85C104FF0010808FA01F0304208D09B
:1018D00021684969090604D5A860606D40F00200DE
:1018E000606594F85C1004208840304208D021687C
:1018F0000968890704D5A860606D40F00400606540
:1019000094F85C1010208840304218D02168096893
:10191000090714D5A86020680168490304D5006848
:10192000000308D5A16C07E00168C90503D401686C
:1019300021F008010160216C09B12046884794F824
:101940005C1020208840304231D021680968C906E7
:101950002DD5A86094F8350005282068016806D0C8
:10196000490347D5006800031DD4616C1CE021F0D9
:10197000160101602068416921F080014161206CFD
:1019800008B9A06C20B12068016821F0080101604D
:1019900094F85C103F208840A86084F8358084F873
:1019A0003490216D1FE0E16B09B120468847606DDE
:1019B00000282BD0606DC00714D0052084F83500B6
:1019C0002068016821F0010101600098401C00902E
:1019D000B84203D820680068C007F6D184F8358083
:1019E00084F83490E16C002910D001B02046BDE8A5
:1019F000F04308470168C905D5D4016821F01001FA
:101A0000016084F8358084F83490CCE7BDE8F88331
:101A1000140000202DE9F041044600F0BFF906460D
:101A20005CB1022084F83500002584F83450206829
:101A3000016821F0010101600DE00120BDE8F081A5
:101A400000F0ACF9801B052805D920206065032033
:101A500084F83500F2E720680068C007F0D12268FA
:101A6000116820480140D4E901031843D4E9033642
:101A70003343184363691843A3691843E369184360
:101A8000236A18430843616A042903D1D4E90B137C
:101A900019430843106020684069666A20F0070116
:101AA00030460E43012704280CD1A06A0643E06AA1
:101AB00040B12046FFF756F920B14020606584F818
:101AC0003570BAE7206846612046FFF737F994F889
:101AD0005C203F2191408160656584F8357000206D
:101AE000ACE700003F8010F010B5244C10281AD04D
:101AF000202821D008282AD0012813D107F0BEF9C8
:101B000001280FD004F11001606906F01DFD206965
:101B1000002807D01A494FF080500860BFF34F8F5C
:101B2000BFF36F8F10BD607840F001006070A07847
:101B300040F00100A07003E0207840F00100207028
:101B400020790028EED0BDE8104005F0F1BCE07827
:101B500040F00100E070E07810F00100E070E1D0AA
:101B6000E07820F00100E070E07840F00200E070E2
:101B7000BDE81040034805F0B5BD0000C8000020D6
:101B800004ED00E0086F0020044910B50A68024225
:101B900002D00860FFF7A8FF10BD0000143C014010
:101BA0002DE9F84FDFF8BCA10022012503264FF0F4
:101BB0000F090AF1040BAAF1040E00BF0B6805FA25
:101BC00002F42340A34270D10F7907F00307012FDD
:101BD00001D0022F16D187684FEA420806FA08FCA6
:101BE00027EA0C07D1F80CC00CFA08FC4CEA070CE9
:101BF000C0F808C04768A7430C79C4F300149440A8
:101C00003C4344600C79E443A4070AD0C4684FEA1B
:101C1000420C06FA0CF7BC438F6807FA0CF727430F
:101C2000C7600C7904F00304022C12D1D40800EB35
:101C3000840CDCF820405707FF0E09FA07F824EA65
:101C40000804D1F8108008FA07F848EA0408CCF82C
:101C5000208004684FEA420C06FA0CF7BC430F7967
:101C600007F0030707FA0CF7274307604C6814F4E2
:101C7000403F70D03C4C276847F480472760246879
:101C800022F0030704F480440094384C07EB040C62
:101C9000DCF8084897074FEA177809FA08F7BC43B9
:101CA000334FB84202D1002724E054E0314FB8420C
:101CB00001D101271EE0304FB84201D1022719E0BF
:101CC0002E4FB84201D1032714E02D4FB84201D165
:101CD00004270FE02B4FB84201D105270AE02A4F15
:101CE000B84201D1062705E0284FB84201D10727A5
:101CF00000E0082707FA08F72743CCF80878DAF855
:101D000000405746D1F804C09C435FEACC2C00D574
:101D10001C433C60DBF800405F46D1F804C09C43A4
:101D20005FEA8C2C00D51C433C60DEF8004077460F
:101D3000D1F804C09C435FEA8C3C00D51C433C6056
:101D4000084F083F3C68D1F804C09C435FEACC3C94
:101D500000D51C433C60521C102AFFF42FAFBDE895
:101D6000F88F0000083C0140443802400030014038
:101D7000000002400004024000080240000C024043
:101D8000001002400014024000180240001C0240F3
:101D90000AB1816170470904FBE7000001488068CF
:101DA000704700000800002070B5040025D094F8AA
:101DB0003D00002520B984F83C50204600F0BAF9D7
:101DC000242084F83D002068016821F001010160B1
:101DD0002068016841F4004101602068016821F435
:101DE0000041016000F022FB4D4A6168914201D838
:101DF0004C4900E04C49884201D2012070BD4B495A
:101E00002368B0FBF1F15E6826F03F060E435E608A
:101E10006368934206D94FF4967359434FF47A732B
:101E2000B1FBF3F12368491C1E6A26F03F063143DB
:101E300019626168914210D84900401EB0FBF1F26E
:101E4000521CC2F30B02042A01D2042022E0B0FB90
:101E5000F1F0401CC0F30B001CE0A268F2B301EBF0
:101E6000C10303EB0116431EB3FBF6F35B1C43F403
:101E700080431B0549D092B301EBC10202EB011173
:101E8000401EB0FBF1F0401CC0F30B0040F480405A
:101E900040F400402168CA694CF6FF739A4310432E
:101EA000C861D4E9071001432068026822F0C0022B
:101EB00011430160D4E9030101432068826848F2BC
:101EC000FF339A4311438160D4E905010843216837
:101ED000CA6822F0FF021043C86001E00EE016E07D
:101EE0002068016841F0010101602564202084F828
:101EF0003D00256384F83E50002070BD01EB410693
:101F0000431EB3FBF6F35B1CB3E70120C2E701EB12
:101F10004101401EB0FBF1F0401CC0F30B00B7E7DD
:101F2000A086010080841E0000093D0040420F0091
:101F30002DE9FF4F83B09A46DDE9118793460446A9
:101F4000DDF84090FFF72AFF054694F83D00202871
:101F500070D11923012274492046009501F0ECFC50
:101F60000028F5D194F83C00012863D0012084F8C2
:101F70003C0020680168C90703D1016841F00101F4
:101F800001602068016821F400610160222084F86A
:101F90003D00402084F83E0000262664C4F82490CA
:101FA000A4F82A80608D20856048E062CDE9007544
:101FB00053465A462046049901F040FC002879D146
:101FC000208DD0B1012821D00228206824D0416979
:101FD00080690090208D032866D801282BD05449B1
:101FE00002283B464FF00002009557D08846204615
:101FF00001F0A2FC00285DD13AE0206841698169C6
:102000000091016841F4007101607DE02068016881
:1020100021F480610160F0E7016821F480610160D2
:102020002068016841F400610160206841698069AD
:10203000009069E075E02A463946204601F022FD0D
:1020400088BB54E02068016841F400710160206899
:102050000069616A0870606A401C6062218D491ED7
:102060002185618D491E618521680969017042E001
:102070002068016821F48061016020680069616A5C
:102080000870606A401C6062208D401E2085608D53
:10209000401E60853B46002241460095204601F0E7
:1020A0004BFC00B9CEE705E02A463946204601F050
:1020B000E9FC18B1012007B0BDE8F08F2068006985
:1020C000616A0870606A401C6062208D401E81B2A7
:1020D0002185608D401E608520684269D243520789
:1020E00012D4032903D1016821F4806101602068C2
:1020F0000069616A0870606A401C6062208D401E41
:102100002085608D401E6085208D00287FF462AFA1
:10211000202084F83D0084F83E6084F83C60002074
:10212000C9E70220C7E70000020010000000FFFF1F
:1021300004000100F0B587B0044614216846FEF79C
:1021400028FA1A49206888422DD11948016841F0BF
:1021500004010160016801F004010591016841F08A
:10216000010101600068122400F0010005904FF4A5
:1021700000700125032604278DE8F10069460D480B
:10218000FFF70EFD28028DE8F10069460A48FFF7C7
:1021900007FD07481030016841F400010160006844
:1021A00000F40000059007B0F0BD0000005C0040A6
:1021B00030380240000802400000024002488168B6
:1021C0000278114481607047080000200B4810B568
:1021D000016841F400710160016841F480610160AF
:1021E000016841F480710160032000F073F80F2052
:1021F00000F006F800F024F8002010BD003C02407A
:1022000070B50D4D04464FF47A712878B1FBF0F0AB
:102210000A490968B1FBF0F000F0E4FC48B9102C61
:1022200007D200222146501E00F034F800206C60D6
:1022300070BD012070BD00000800002014000020C7
:102240000C4882B0016841F480410160006800F4EC
:10225000804000900748001F016841F080510160F4
:102260000068002200F0805000900F21901E02B004
:1022700000F010B844380240002809DB00F01F02CB
:10228000012191404009800000F1E020C0F80011D8
:1022900070470000F0B40E4B1B680C46C3F30223DA
:1022A000C3F10705042D00D90425191D072901D202
:1022B000002300E0DB1E012606FA05F1491E21403D
:1022C00099409E40761E16403143F0BC03F079BE23
:1022D0000CED00E0064900F0070208684FF6FF0326
:1022E000184040EA0220034A10430860704700008B
:1022F0000CED00E00000FA052DE9F0470E46050060
:1023000065D0DFF81481D8F80000F7B200F00700BC
:10231000B04207D288F80070D8F8000000F007003B
:10232000B04254D128683D4C810712D5400703D5EF
:10233000206840F4E05020602878000703D520682A
:1023400040F4604020602068A96820F0F000084355
:1023500020602878C0072DD03049686808390128E6
:1023600012D0022813D0032811D009688907002948
:102370002DDA216821F0030101432160FFF70EFDF2
:10238000814641F2883A0EE009688903EFE709685F
:102390008901ECE7FFF702FDA0EB0901514502D9E5
:1023A0000320BDE8F0872068696800F00C00B0EBFE
:1023B000810FEFD1D8F80010404601F00701B1427B
:1023C00007D90770006800F00700B04201D0012073
:1023D000E7E72878400705D52068E96820F4E05051
:1023E000084320602878000706D52068296920F472
:1023F000604040EAC100206000F038F82168084AD7
:10240000C1F30311515CC8400649086006480068E2
:10241000FFF7F6FE0020C4E7003C02400838024007
:1024200054920008140000200C00002004480549C4
:1024300000680968044AC1F38221515CC8407047B2
:10244000140000200838024064920008044805493E
:1024500000680968044AC1F34231515CC8407047C2
:10246000140000200838024064920008154810B596
:10247000006810F00C02144813D01449042A0FD03D
:10248000082A0ED10F4C241F2268236802F03F0255
:102490005B0207D52068C0F38810A0FB010106E0AD
:1024A000084610BD2168C1F38811A1FB000100237B
:1024B000FDF75AFF2168C1F30141491C4900B0FBF7
:1024C000F1F010BD083802400024F400001BB700F2
:1024D0002DE9F84F04006ED02078DFF84C93C00748
:1024E000A9F104054AD009F104000168C1F3810192
:1024F000012908D00068C0F3810002280AD1D9F868
:102500000000400206D52868800337D5606800289F
:10251000E1D033E06068B0F5803F10D0B0F5A02F77
:10252000286810D020F480302860286820F48020AB
:1025300028606068A8B1FFF731FC06460DE0286806
:1025400040F48030F4E740F480202860F7E700BFD3
:10255000FFF724FC801B642873D828688003F7D514
:102560000CE0FFF71BFC064605E000BFFFF716FC7A
:10257000801B6428F0D828688003F7D42078DFF81F
:10258000AC8280074FF0000A3ED5A748001D0168C5
:1025900011F00C0F08D00068C0F3810002280BD1A5
:1025A000D9F80000400207D42868800716D5E068F3
:1025B000012800D112E033E1E068B8B10120C8F889
:1025C0000000FFF7EBFB064605E000BFFFF7E6FB68
:1025D000801B0228C0D828688007F7D528682169A1
:1025E00020F0F80040EAC10028600DE0C8F800A023
:1025F000FFF7D4FB064604E0FFF7D0FB801B022860
:102600001FD828688007F7D42078000722D5864F86
:1026100087486169703771B101210160FFF7BEFB26
:10262000064604E0FFF7BAFB801B022809D8386889
:102630008007F7D50EE0C0F800A0FFF7AFFB064615
:1026400005E082E0FFF7AAFB801B02287DD83868EE
:102650008007F7D42078400768D5DFF8CCB1002791
:102660000BF13C0BDBF80000C0000BD4DBF80010D2
:1026700041F08051CBF80010DBF80000012700F09A
:10268000805000906B4E3068C00510D4306840F424
:1026900080703060FFF782FB009005E0FFF77EFB63
:1026A0000099401A022850D83068C005F6D55E4E11
:1026B000A0686C3601280FD00528306810D020F0B3
:1026C00001003060306820F004003060A068B8B1CC
:1026D000FFF764FB00900FE0306840F00100F4E782
:1026E00040F004003060F7E7FFF758FB0099411A0B
:1026F00041F28830814266D830688007F4D50EE018
:10270000FFF74CFB009007E0FFF748FB0099411AE8
:1027100041F28830814256D830688007F4D42FB116
:10272000DBF8001021F08051CBF80010A069C8B38D
:102730003D49091D0968C1F3810102294AD00228D7
:10274000504607D0C8F8600000E03CE0FFF726FBE9
:1027500004463BE04746C8F86000FFF71FFB06460B
:1027600005E000BFFFF71AFB801B02282BD8286862
:102770008001F7D4D4E907010843A16A2E4A490829
:1027800002EB0141626A41EA8211084394F82C107D
:1027900040EA0161C9F8001001203866FFF7FEFA2F
:1027A000044606E03EE000BFFFF7F8FA001B0228EF
:1027B00009D828688001F7D534E000BFFFF7EEFAAA
:1027C000001B022802D90320BDE8F88F2868800189
:1027D000F4D427E00128F7D0D9F80000E26900F42A
:1027E000800191421CD1226A00F03F01914217D131
:1027F00047F6C071626A0140B1EB821F10D1A26A34
:102800004FF0FF3300F4403103EB5202B1EB024FC3
:1028100006D194F82C1000F07060B0EB016F01D07D
:102820000120D1E70020CFE70438024000004742F2
:10283000800E4742007000400000FFFF70B50400AA
:1028400009D0606A002540B125616561A56294F8F0
:10285000510040B10CE0012070BD6068B0F5827F8E
:10286000F4D0E561F2E784F85050204600F044F8D7
:10287000022084F851002068016821F040010160C5
:10288000A088218900F4827001F404410843A189E1
:1028900001F400610843217C01F002010843217D1D
:1028A00001F001010843218B01F400710843217FED
:1028B00001F03801084394F8201001F0800108432A
:1028C000218D01F40051084321680860A0690421AA
:1028D00001EA104094F8241001F010010843216827
:1028E00048602068C16921F40061C161656501200B
:1028F00084F85100002070BD2DE9F04387B00646F2
:1029000014216846FDF745FE34493068884261D19C
:1029100033480025016841F480510160006800F4EB
:10292000805005902E481438016841F00201016082
:10293000016801F002010591016841F001010160A7
:102940000068022400F001000590182001274FF0D4
:1029500003084FF005098DE8910369462148FFF708
:102960001FF980208DE8910369461F48FFF718F989
:102970001F4C1E484FF0C0672060C4E901754FF43A
:102980008068C4E9035865617812A561C4E90750FD
:1029900020466562FFF73EF808B1FEF71AFAF464C4
:1029A000A663134C114860341830E4E80207402055
:1029B000A4E82101C00244F81459A561C4E90750F4
:1029C0000B4865626030FFF725F808B1FEF701FAA1
:1029D000B464A66307B0BDE8F08300000030014096
:1029E00044380240000402400000024040640240BB
:1029F000040900202DE9FF4F81B01D46934604468F
:102A00004FF001090E9EFFF7C9F9074694F85100EF
:102A10006168012806D0B1F5827F3CD1A168C9BBAD
:102A2000042838D10298002871D0BBF1000FFBD0E8
:102A3000002DF9D094F8500001282CD04FF0010A55
:102A400084F850A094F85100042802D0052084F89E
:102A500051004FF00008C4F85480C4F838B0E5873E
:102A6000A58702992163E586A586C4F84080C4F84D
:102A7000448020680168490603D4016841F04001A0
:102A80000160E068B0F5006F606808D0F0B3012D18
:102A900049D081E0FFE7022005B0BDE8F08F08B122
:102AA000012D39D1206B21680088C860206B801C03
:102AB0002063E08E401EE0862EE020688168890752
:102AC0000FD5E18E69B1B9F1010F0AD1216B0988E7
:102AD000C160206B801C2063E08E401EE0864FF0BA
:102AE000000920688168C9070CD0E18F51B1C06826
:102AF000A16B0880A06B801CA063E08F401EE08764
:102B00004FF00109FFF74AF9C01B01E00BE067E055
:102B1000B04201D3701C50D1E08E0028CDD1E08F9F
:102B20000028CAD13EE0206B216800780873206B32
:102B3000401C2063E08E401EE0862DE02068816806
:102B400089070FD5E18E69B1B9F1010F0AD1216B67
:102B500009780173206B401C2063E08E401EE086E4
:102B60004FF0000920688168C9070CD0E18F51B18E
:102B7000C068A16B0870A06B401CA063E08F401E72
:102B8000E0874FF00109FFF709F9C01BB04202D3FB
:102B9000701C01D011E086B1E08E0028CED1E08F0C
:102BA0000028CBD13A463146204602F023FE50B1F0
:102BB0002020606584F8508012E084F851A084F8E9
:102BC0005080032068E7A06818B92068C168806851
:102BD000009084F851A084F85080606D0028F1D0F6
:102BE000012059E710B5401EB0F1807F01D30120CC
:102BF00010BD4FF0E02460610F21601703F0E1F990
:102C00000020A06107202061002010BD10B590F8C1
:102C10003C20012A22D0012280F83C20CA688C681E
:102C200022F4407222434C6822F4806222430C68F2
:102C300022F4006222430C6922F4805222434C6940
:102C400022F400522243C969002322F480420A433D
:102C500001684A6480F83C30002010BD022010BD9D
:102C600070B590F83C20012A32D0012480F83C4015
:102C7000022280F83D2003685A689D6822F07006A1
:102C80000A6832435A60134B02689A4214D0B2F178
:102C9000804F11D0104B9A420ED0104B9A420BD05D
:102CA0000F4B9A4208D00F4B9A4205D00E4B9A42D6
:102CB00002D00E4B9A4204D1496825F08003194393
:102CC000916080F83D40002180F83C10084670BDBE
:102CD000022070BD000001400004004000080040D8
:102CE000000C00400004014000400140001800407A
:102CF00010B5040003D094F83D0010B107E00120A6
:102D000010BD002084F83C00204600F01FF802208F
:102D100084F83D00211D206802F062FE012084F845
:102D2000460084F83E0084F83F0084F8400084F8B0
:102D3000410084F8420084F8430084F8440084F899
:102D4000450084F83D00002010BD000008B5134A7E
:102D500001681348914207D1016841F00101016007
:102D6000006800F001000BE00E4A91420AD10C48C5
:102D7000001F016841F004010160006800F00400D8
:102D8000009008BD084A9142FBD1016841F400312E
:102D90000160006800F40030F2E70000000001402C
:102DA00044380240000800400044014090F83D10C3
:102DB000012901D001207047022180F83D100068F0
:102DC0001149884214D0B0F1804F11D00F49884288
:102DD0000ED00F4988420BD00E49884208D00E49C8
:102DE000884205D00D49884202D00D49884204D15D
:102DF000816801F00701062903D0016841F0010153
:102E00000160002070470000000001400004004005
:102E100000080040000C0040000401400040014058
:102E20000018004070B5044690F83C0000250128C9
:102E300017D0012684F83C60022084F83D00206809
:102E4000826822F0770222F47F428260086850286C
:102E500038D00DDC20284FD005DC90B3102811D1DC
:102E60004AE0022070BD302846D040280AD13BE01D
:102E700060282FD070280DD0B0F5805F03D0B0F55A
:102E8000005F12D0012584F83D60002084F83C00EA
:102E9000284670BDCB68D1E90121206802F015FEFB
:102EA0002068816841F0770109E0CB68D1E9012110
:102EB000206802F00AFE2068816841F48041816048
:102EC000E1E719E0CA684968206802F0D3FE5021A2
:102ED000206806E0CA684968206802F0DCFE6021CC
:102EE000206802F0FCFDCEE7CA684968206802F05D
:102EF000C1FE40212068F4E7226801461046F0E751
:102F000030B587B0044614216846FDF742FB214DD9
:102F100022680024204802210123AA420FD102681E
:102F200042F010020260006800F0100005900802F4
:102F30008DE80B00CDE903136946184811E0184DE0
:102F4000AA4212D1026842F008020260006800F052
:102F50000800059028148DE8130003910491694638
:102F60001048FEF71DFE07B030BD0F4CA242FAD14B
:102F7000026842F020020260006800F02000059024
:102F800040208DE80B000320CDE903106946074877
:102F9000E7E7000000000140303802400010024026
:102FA00000080040000C02400044014000140240B0
:102FB00070B5044690F83C0000260D4601280FD05D
:102FC000012084F83C006AB1042A1DD0082A2FD0C1
:102FD0000C2A3FD00126002084F83C00304670BD0A
:102FE000022070BD206802F083FD2068816941F0F5
:102FF000080181612068816921F0040181612068F4
:1030000081692A69114311E0206802F0A1FD20685E
:10301000816941F4006181612068816921F48061E6
:103020008161206881692A6941EA02218161D2E7D0
:10303000206802F0C3FD2068C16941F00801C16148
:103040002068C16921F00401C1612068C1692A6951
:10305000114311E0206802F0E5FD2068C16941F4E8
:103060000061C1612068C16921F48061C16120688B
:10307000C1692A6941EA0221C161ACE710B50400C7
:1030800003D094F83D0010B107E0012010BD0020EE
:1030900084F83C00204600F01EF8022084F83D0031
:1030A000211D206802F09CFC012084F8460084F871
:1030B0003E0084F83F0084F8400084F8410084F822
:1030C000420084F8430084F8440084F8450084F802
:1030D0003D00002010BD704710B50446022249B1E2
:1030E00004290ED0082913D094F84100012816D0E5
:1030F000012010BD94F83E000128F9D184F83E204B
:103100000FE094F83F000128F2D184F83F2008E056
:1031100094F840000128EBD184F8402001E084F8C5
:1031200041200122206802F0C3FC16492068164A9B
:10313000884201D0904203D1436C43F4004343647E
:103140002068884213D0B0F1804F10D00F498842D8
:103150000DD00F4988420AD00E49884207D09042CC
:1031600005D00D49884202D00C49884204D18168BB
:1031700001F00701062903D0016841F00101016057
:10318000002010BD00000140000401400004004088
:1031900000080040000C00400040014000180040C2
:1031A00070477047F8B5016804460868CA684B69FB
:1031B00010F00F0F4FF0000559D003F0010602F494
:1031C0009077374365D0C10705D0D10503D5616C31
:1031D00041F001016164410705D5D90703D0616C55
:1031E00041F002016164810705D5D90703D0616C04
:1031F00041F004016164010707D502F02001314369
:1032000003D0616C41F008016164616C00293AD01F
:10321000800604D5900602D5204602F07CFD206889
:103220004069616CC0F38010090700D460B3204688
:1032300002F04AFD20684069400621D5206814301C
:1032400050E8001F21F0400140E80012002AF5D1AB
:10325000E06BA8B172490165E06BFEF7F9FA00284E
:1032600011D0E06B016D01B0BDE8F0400847830666
:103270000FD593060DD52046BDE8F84002F04BBDB2
:103280002046FFF78EFFF8BD2046FFF78AFF6564F2
:10329000F8BD266B2023012E7ED1C6067CD5D6062E
:1032A0007AD508684868009048694FF002064006E1
:1032B0004DD5E26B106840684FF480770004000C35
:1032C0003AD0A18D814237D9E085D069B8422DD05E
:1032D00020680C3050E8001F21F4807140E8001293
:1032E000002AF5D12068143050E8001F21F00101B8
:1032F00040E80012002AF5D12068143050E8001F81
:1033000021F0400140E80012002AF5D184F8423053
:10331000256320680C3050E8001F21F0100140E8C0
:103320000012002AF5D1E06BFEF749FA6663A08D22
:10333000E18D401A81B206E0A18D8142A8D1D06909
:10334000B842A5D166632046FFF72AFFF8BDA08DDD
:10335000E18D401A81B2E08D0028F7D00029F5D028
:1033600020680C3050E8002F22F4907240E80027CB
:10337000002FF5D12068143050E8002F22F0010210
:1033800040E80027002FF5D184F8423025632068FB
:103390000C3050E8002F00E006E022F0100240E878
:1033A0000023002BF3D1CDE705062BD5150629D533
:1033B00094F841002128C9D1A068B0F5805F01D1FF
:1033C0002069B0B1206A411C216221680078486000
:1033D000E08C401E0004000CE084B7D12068C16876
:1033E00021F08001C1602068C16841F04001C160E6
:1033F000F8BD206A0088C0F308004860206A801C7D
:103400002062E5E74006F3D55006F1D5CA682046AC
:1034100022F04002CA6084F8413000F064F9F8BD3F
:10342000BB5C000870B5040004D094F8410000258E
:1034300010B106E0012070BD84F84050204600F035
:1034400023F8242084F841002068C16821F4005149
:10345000C160204602F0C0FC2068016921F490415F
:1034600001612068416921F02A0141612068C16839
:1034700041F40051C1606564202084F8410084F863
:1034800042006563002070BD2DE9F04786B0054617
:1034900014216846FDF77DF860485F4B2A680024D8
:1034A0005E49143802264FF003084FF007099A428C
:1034B00032D10A6842F010020A60096801F0100176
:1034C0000591016841F002010160016801F002010B
:1034D0000591016841F001010160006802AA00F055
:1034E000010005908020CDE9000682E810036946BE
:1034F0004B48FEF755FB3002CDE9000602AA6946AB
:1035000082E810034748FEF74BFB002205212520E7
:10351000FEF7C0FE25203DE0434B4FF4403A1F1517
:103520009A423CD13D49091F0A6842F480220A6050
:10353000096801F480210591016841F004010160EE
:10354000006802AA00F0040005904FF44060CDE945
:10355000000682E8100369463448FEF721FB354E29
:10356000334830607804C6E90104C6E90347746152
:10357000B461C6E9074A30467462FEF74BFA08B1F7
:10358000FDF727FCEE63002205212720B563FEF737
:1035900081FE2720FEF770FE06B0BDE8F087264BBF
:1035A0009A42F9D10A6842F020020A60096801F0E3
:1035B00020010591016841F040010160006802941A
:1035C00000F0400005904FF48440CDE9000608204B
:1035D000CDE9038069461948FEF7E2FA154E18480E
:1035E000603630608005C6E90104C6E903477461AE
:1035F000B461C6E9074A30467462FEF70BFA08B1B7
:10360000FDF7E7FBEE63002205214720B563FEF7D7
:1036100041FE4720BEE70000001001404438024050
:103620000004024000000240004800400008024040
:1036300028600240740B0020001401400018024072
:103640002864024070472DE9F843044690F8410091
:10365000984616460D46202802D00220BDE8F88381
:1036600085B17EB100206064212084F84100FEF71E
:1036700095FBA6848146E684A0682027B0F5805F8C
:1036800002D003E00120E9E7206910B12E460025B1
:103690000EE000260CE08021204602F023FCA8B9B1
:1036A000C6B116F8010B21684860E08C401EE0842A
:1036B000E08C4B464FF00002CDF800800028EAD1A4
:1036C0004FF04001204602F00DFC40B184F84170FB
:1036D0000320C3E735F8020BC0F30800E3E784F8E2
:1036E00041700020BAE770470178B6EE001A59B170
:1036F000012909D002291ED0002000EE100A00EE98
:10370000900A01EE100A7047D0ED072AD0ED090AA1
:10371000D0ED061A90ED082A22EEA00A11EEA11AA9
:1037200001EEC20A22EE202A00EEA01A01EEA22A21
:10373000F0EE420A7047D0ED061AD0ED080AD0ED3F
:10374000072A90ED090A21EEA02A01EEE11A60EEA7
:10375000800A02EEC02A51EEE20A00EE401AB0EEF4
:10376000420A70470178F6EE000A59B101291AD0D1
:10377000022933D0002000EE100A00EE900A01EE7C
:10378000100A704790ED061A90ED072AD0ED081A3E
:1037900051EE010AD0ED092A22EE210A01EE220A99
:1037A00041EEA10A2AE090ED061AD0ED092A90ED2B
:1037B000070A41EE410A61EE221A90ED082A40EE16
:1037C000421A40EE400A20EE220A01EE020AB1EE51
:1037D000401AB0EE600AF0EE610A7047D0ED061AAA
:1037E000D0ED072A90ED081A41EEE10A90ED092A82
:1037F00022EE810A11EEC20A41EE410A61EEA21ADE
:1038000041EE421AB0EE611A7047FEE701684A695C
:10381000D24352050FD46FF480624A61002140F810
:10382000301F202242738173026942F00402026158
:103830000173012070470020704700002DE9F84F08
:103840000446006889460B9D01689846174641F476
:10385000806101602068016841F480710160009519
:103860004FF0011B0022594620460A9B00F064F8E5
:103870004FF4007A40B120680068C00501D5C4F853
:1038800040A00320BDE8F88F216809F0FE00086120
:103890002B46284920460A9A00F096F8F0BB20688B
:1038A0004169806900902A4620460A9900F022F971
:1038B00040B1206C04283AD12068016841F40071BD
:1038C000016034E0FEB2B8F1010F09D02168380A76
:1038D00008612A4620460A9900F00CF90028E8D130
:1038E000206806612A4620460A9900F003F900285C
:1038F000DFD12068016841F48071016000950022E9
:10390000594620460A9B00F017F80028B3D12168D9
:1039100009F0FF0040F00100086100E007E02B46DD
:10392000044920460A9A00F04FF80028AAD0012046
:10393000A8E70000020001002DE9F047984617466D
:103940000D460446C1F30746DDF820902AE000BF8B
:10395000B8F1FF3F26D0FEF721FAA0EB090141455F
:1039600002D8B8F1000F1DD12068012E16D0806951
:1039700025EA00000004000C12D00020B84211D14A
:10398000002044F8300F20216173A073216941F0B9
:103990002001216120730120BDE8F0874069E7E73D
:1039A0000120EBE72068012E0AD0806925EA00009B
:1039B0000004000C06D00020B842C9D00020EBE77C
:1039C0004069F3E70120F7E72DE9F04798461646EE
:1039D0000D4604464FF000094FF0200AC1F3074797
:1039E00023E020684069C043400515D42068016881
:1039F00041F40071016021686FF480604861C4F88F
:103A0000309084F83DA084F83E90216C41F0040190
:103A1000216484F83C9021E0701C06D0FEF7BEF9CA
:103A2000A0EB0800B04203D816B1012F1FD021E04F
:103A30002068012F15D0806925EA00000004000CE1
:103A400018D000BF44F8309F84F80DA084F80E9081
:103A5000216941F02001216184F80C900120BDE82A
:103A6000F087406925EA00000004000CEAD12068D4
:103A7000406901E02068806925EA00000004000C2C
:103A8000AFD1ECE72DE9F041002590460E46044603
:103A9000202728E04069C043C0060CD454F8301BEE
:103AA0006FF01000486144F810596777A577206AD5
:103AB0002062257714E0FEF771F9A0EB0800B04210
:103AC00000D886B920684069C04340060BD544F849
:103AD000305F6773A573206940F020002061257373
:103AE0000120BDE8F08120684169C9434906D1D46D
:103AF0000020F6E770B516460D4604461EE0204647
:103B0000FFF784FE08B1012070BD681C16D0FEF7D7
:103B100045F9801BA84200D885B920684069C04398
:103B200000060BD5002044F8300F20216173A073EC
:103B3000216941F0200121612073E4E72068406998
:103B4000C0430006DBD4002070BD00002DED028BC9
:103B500084B0072003F02CFEA748016841F0807173
:103B60000160DFF898820021C8F80410D8F800102E
:103B700041F00101C8F80010D8F8046005F08CF994
:103B8000009002E0642003F013FEFCF733FE0028EF
:103B9000F8D19B4A101DCDE90102A2F1100909F1EB
:103BA0000401FCF73FFE4A46A2F13C01A1F10C00E2
:103BB00003F06EFCDFED930A9FED930A934A002118
:103BC00009F1340000F036FC002003F027FE05F078
:103BD00013F98F4C8D4F3F1F60613868FDF734F942
:103BE0008C491020C8610846FEF728FE08B1FDF791
:103BF000F0F8874908222431A1F1080001F082FD84
:103C000001202071DFF8F8B1DFF80CA2ABF1580BFE
:103C10009FED828A4FF0FF352946012004F0B2FA69
:103C20000128F9D1D8F80400811B00EE101A7C4954
:103C30000646F8EE400A91ED000AB8EE401A80EE12
:103C4000810A10EE100A504502DA9FED760A06E06E
:103C500010EE100A7449884201DD9FED740A84ED6C
:103C6000030A2078000708D5207820F0080020708B
:103C7000674801992530FCF78DFD607840070BD52A
:103C8000607820F0040060705D4A09F10401103290
:103C9000A2F12A00FCF734FDA07840070CD5A078EB
:103CA00020F00400A0705A4802991A30FCF794FEE4
:103CB00099ED040A03F0CAFC514A103AA2F13C0102
:103CC000A1F10C0003F0E4FB4D487038A0F10C03A7
:103CD00090ED000A00F10C0183ED000A91ED001A4D
:103CE00080ED001ADFED520A61EE201A9FED511AA5
:103CF00000F1240240EE011AD2ED002A9FED4E0A97
:103D00005D4642EE801AC1ED001AD0ED011AC3EDF6
:103D1000011A91ED012A80ED012A22EE203A92ED5E
:103D2000012A01EE813A02EE003A81ED013AD0ED2E
:103D3000021AC3ED021A91ED023A80ED023A23EE27
:103D4000203AD2ED020A01EE813A00EE803A9FED70
:103D50003B0AC2EE001A81ED023A9BED021A94ED85
:103D6000033A386821EE081A82EE802AC0EE802AD3
:103D70009BED010ADBED000A20EE080A60EE880ADE
:103D8000FDF718FB3868FDF75AF8FDF751FB1C4B9F
:103D900010EE902A11EE101A343B10EE100A9960C2
:103DA000C3E90002264B18605A60996002F0E8F8F7
:103DB000134A0020403A02F1180300BF02EB8001D1
:103DC00005EB800C91ED000ADCED000A94ED031A7E
:103DD00000EE810A81ED000A03EB800120EE080A63
:103DE000401CC0B281ED000A0228E7D901216846D3
:103DF00004F056FB0EE70000FCED00E0001000E0D0
:103E0000F06E00200080894500A08C458492000857
:103E1000C8000020AC0800206F12033AE62E65426D
:103E2000140000206F12033A0AD7A33B0AD7A33B22
:103E30005AF8F63F5D896EBFD5A9183B0AE81C41C8
:103E4000D06F0020194808B5016841F400110160E5
:103E5000016801F400110091016841F480010160E2
:103E60000068002200F48000009005210C20FEF77D
:103E700011FA0C20FEF700FA002205213920FEF786
:103E800009FA3920FEF7F8F9002205213A20FEF759
:103E900001FA3A20FEF7F0F9002205213B20FEF757
:103EA000F9F9BDE808403B20FEF7E6B9303802409A
:103EB00010B58EB01C220B496846FCF730FB002180
:103EC000684603F081FC084C06491C2260601C31E6
:103ED00007A8FCF724FB002107A803F075FC20606D
:103EE0000EB010BD14920008000000202DE9F04330
:103EF00087B014216846FCF74CFB5B48016841F031
:103F000002010160016801F002010591016841F0C0
:103F100040010160016801F040010591016841F034
:103F200001010160016801F001010591016841F0A2
:103F300008010160016801F008010591016841F084
:103F400004010160016801F004010591016841F07C
:103F500080010160016801F080010591016841F074
:103F600020010160016801F020010591016841F024
:103F70001001016000683D4F00F010000590002224
:103F800040213846FDF704FF394E4FF4E055012239
:103F900029463046FDF7FCFEDFF8D88001221021CB
:103FA0004046FDF7F5FEDFF8D0900022012148469B
:103FB000FDF7EEFE01244020CDE90004029469469D
:103FC00038460394FDF7ECFDCDE90054022569461F
:103FD0003046CDE90245FDF7E3FD09204FF4041614
:103FE000CDE90006694602943846FDF7D9FD102058
:103FF000CDE9000469464046CDE90245FDF7D0FD14
:104000003020CDE90006694602941C48FDF7C8FD42
:104010000094694648460194CDE90245FDF7C0FD8C
:10402000062100220846FEF735F90620FEF724F99E
:10403000002205210920FEF72DF90920FEF71CF9C1
:10404000002205210A20FEF725F90A20FEF714F9BF
:10405000002205211720FEF71DF91720FEF70CF9A5
:1040600007B0BDE8F083000030380240001802407D
:10407000001C024000000240000402400008024010
:104080000D4810B50B4901600C49416000214FF407
:1040900080428160C0E9031241618161C1610162B6
:1040A000FDF782FE002803D0BDE81040FCF791BE6A
:1040B00010BD0000005C004058080020801A060077
:1040C000104810B50E4901604FF482714160002123
:1040D00002228160C0E90312012242615202826120
:1040E0003822C0E90721416281620A21C162FEF7DC
:1040F000A5FB002803D0BDE81040FCF76ABE10BD48
:1041000000300140AC08002010B588B01C21684682
:10411000FCF73FFA144813490024C0E9001441F2A7
:104120008731C0E9024104618461FEF7E1FD08B115
:10413000FCF74FFE0C48FEF7A1FF08B1FCF749FE63
:104140006020CDE9000402940022694606480494E8
:10415000FEF72EFF08B1FCF73CFE0348FEF7D0FE49
:1041600008B010BD00440140540A002010B596B0BC
:1041700000240F9410941194129413941C2108A8F5
:104180001494FCF706FA20216846FCF702FA294845
:1041900027490160A721C0E9011444F61F61C0E965
:1041A000031444618461FEF7A3FD08B1FCF711FE1E
:1041B0004FF480500F900FA91E48FEF733FE08B150
:1041C000FCF707FE1B48FEF759FF08B1FCF701FE9C
:1041D000139413A917481494FEF742FD08B1FCF795
:1041E000F8FD602008904FF4FA60CDE909040B94C3
:1041F0000C940D94002208A90E480E94FEF7D8FEE8
:1042000008B1FCF7E6FD00944FF40050CDE90440FE
:10421000029401940394694606480794FEF7F6FC5D
:1042200008B1FCF7D6FD0348FEF76AFE16B010BDD4
:1042300000000140C409002010B58EB0002407948E
:10424000089409940A940B941C2168460C94FCF77A
:10425000A0F91E481C49C0E9001445F20721C0E935
:10426000024104618461FEF743FD08B1FCF7B1FD32
:104270004FF48050079007A91448FEF7D3FD08B10A
:10428000FCF7A7FD1148FEF7F9FE08B1FCF7A1FD08
:104290000B940BA90D480C94FEF7E2FC08B1FCF757
:1042A00098FD6020CDE90004029408226946074881
:1042B0000494FEF77DFE08B1FCF78BFD0348FEF782
:1042C0001FFE0EB010BD0000000800400C0A0020C8
:1042D0000C4810B50A4901604FF4E13141600021FA
:1042E00081600C22C160C0E904128161C161FFF7E5
:1042F00099F8002803D0BDE81040FCF76ABD10BD56
:10430000001001409C0A0020FEE7FEE7A0B1D0EDBE
:10431000101AC0ED111A90ED0F1A80ED101AC0EDB1
:10432000060A80ED070A30EEC00A80ED0F0A017818
:1043300029B101293BD078E09FED3D0A7047D0EDCF
:10434000010A60EE801AC0ED091AD0ED0A0A90ED5C
:10435000022A42EE000A30EE410AC0ED0A0A90ED50
:104360000D2A80ED0E2A90ED0C2A80ED0D2A80EDAD
:104370000C0A90ED031A21EE001A80ED0B1A90ED55
:10438000050AF4EEC00AF1EE10FA09DCB1EE400ABB
:10439000F4EEC00AF1EE10FA02D390ED0A0A01E041
:1043A00080ED0A0A31EE800A30EE010A2BE070EE51
:1043B000410A90ED012A20EE822A80ED092AD0EDF3
:1043C000020A60EE800AC0ED0A0AD0ED0D2A72EEF4
:1043D000200AC0ED0E2AD0ED0C2AC0ED0D2AF0EE19
:1043E000002A01EE620A30EE210A80ED0C0A90EDFF
:1043F000031A21EE000A80ED0B0A30EE800AD0EDA0
:10440000080A30EE200A80ED080AD0ED040AB4EE66
:10441000E00AF1EE10FA06DCF1EE600AB4EEE00A12
:10442000F1EE10FA01D2C0ED080A90ED080A7047CB
:1044300000000000002828D0002A26D0017092ED4C
:10444000001A80ED011A92ED011A80ED021A92ED28
:10445000021A80ED031A80ED040A9FED0C0AC0EDEC
:10446000050A80ED0E0A80ED0D0A80ED0C0A80ED44
:10447000080A80ED0B0A80ED0A0A80ED090A80ED3A
:10448000110A80ED100A80ED0F0A7047000000004D
:104490002DE9F74FF84981B00868026822F001025F
:1044A0000260F6480268136823F00103136003E01A
:1044B0000A6822F001020A60EF4909680A68D20717
:1044C000F6D103E0016821F001010160EB480068CA
:1044D0000168C907F6D1EA48EA4AEB4BD0F84C909C
:1044E000E84CE94DE74EE84FDFF898E3DFF894C376
:1044F000D9F80000E449483A603318341835303EA2
:1045000078374FF4006A0CF1300C704535D9884289
:1045100005D0904203D0984201D0A04201D1202082
:1045200026E0A84205D0B04203D0B84201D0604591
:1045300001D150461CE0DFF8508308F130084045B7
:1045400011D0DFF84083A8F1180840450BD0DFF800
:10455000388308F19008404505D0DFF8288308F13A
:104560004808404502D14FF4001001E04FF00060D0
:10457000DFF81083A8F14C083AE0DFF80C8308F16B
:10458000A808404537D9884205D0904203D09842C8
:1045900001D0A04201D1202026E0A84205D0B0429F
:1045A00003D0B84201D0604501D150461CE0DFF88D
:1045B000D88208F13008404511D0DFF8C882A8F150
:1045C000180840450BD0DFF8C08208F1900840453C
:1045D00005D0DFF8B08208F14808404502D14FF419
:1045E000001001E04FF00060DFF89882A8F1500859
:1045F000C8F8000074E0DFF8908208F148084045F0
:1046000037D9884205D0904203D0984201D0A042C9
:1046100001D1202026E0A84205D0B04203D0B84204
:1046200001D0604501D150461CE0DFF85C8208F102
:104630003008404511D0DFF84C82A8F118084045F9
:104640000BD0DFF8448208F19008404505D0DFF830
:10465000348208F14808404502D14FF4001001E0CF
:104660004FF00060DFF82082A8F11008C8F80C00B5
:1046700036E0884205D0904203D0984201D0A04253
:1046800001D1202026E0A84205D0B04203D0B84294
:1046900001D0604501D150461CE0DFF8EC8108F103
:1046A0003008404511D0DFF8DC81A8F118084045FA
:1046B0000BD0DFF8D48108F19008404505D0DFF831
:1046C000C48108F14808404502D14FF4001001E0D0
:1046D0004FF00060DFF8B081A8F11008C8F80800BA
:1046E000D9F800004FF4806B704535D9884205D069
:1046F000904203D0984201D0A04201D1102026E080
:10470000A84205D0B04203D0B84201D0604501D1E3
:1047100058461CE0DFF8708108F13008404511D0A0
:10472000DFF86081A8F1180840450BD0DFF8588108
:1047300008F19008404505D0DFF8488108F14808A5
:10474000404502D14FF4801001E04FF08060DFF867
:104750003481A8F14C083AE0DFF82C8108F1A80870
:10476000404537D9884205D0904203D0984201D0C5
:10477000A04201D1102026E0A84205D0B04203D0CB
:10478000B84201D0604501D158461CE0DFF8F880FE
:1047900008F13008404511D0DFF8E880A8F118088A
:1047A00040450BD0DFF8E08008F19008404505D087
:1047B000DFF8D08008F14808404502D14FF480105E
:1047C00001E04FF08060DFF8BC80A8F15008C8F825
:1047D00000007AE0DFF8B08008F14808404537D99A
:1047E000884205D0904203D0984201D0A04201D126
:1047F000102026E0A84205D0B04203D0B84201D034
:10480000604501D158461CE0DFF87C8008F1300893
:10481000404511D0DFF86C80A8F1180840450BD056
:10482000DFF8648008F19008404505D0DFF8548037
:1048300008F14808404502D14FF4801001E04FF0E4
:104840008060DFF84480A8F11008C8F80C003CE054
:10485000884205D0904203D0984201D0A04201D1B5
:1048600010202CE0A84205D0B04203D0B84201D0BD
:1048700060450BD1584622E004090020640900205D
:10488000AC0800205864024010600240DFF86889DC
:1048900040450FD0DFF8648940450BD0DFF85889D8
:1048A00008F16008404505D0DFF8508908F160083C
:1048B000404502D14FF4801001E04FF08060DFF8F6
:1048C0003889A8F14008C8F80800D9F800007045F8
:1048D00032D9884205D0904203D0984201D0A042FC
:1048E00001D1082023E0A84205D0B04203D0B8424D
:1048F00001D0604502D14FF4007018E0DFF8F8886D
:1049000040450FD0DFF8F48840450BD0DFF8E88849
:1049100008F16008404505D0DFF8E08808F160083C
:10492000404502D14FF4002001E04FF00070DFF865
:10493000CC88A8F1340837E0DFF8BC8808F17808A3
:10494000404534D9884205D0904203D0984201D0E6
:10495000A04201D1082023E0A84205D0B04203D0F4
:10496000B84201D0604502D14FF4007018E0DFF882
:10497000888840450FD0DFF8848840450BD0DFF8A9
:10498000788808F16008404505D0DFF8708808F1A4
:104990006008404502D14FF4002001E04FF0007064
:1049A000DFF85888A8F13808C8F800006EE0DFF892
:1049B000488808F11808404534D9884205D090420B
:1049C00003D0984201D0A04201D1082023E0A842A0
:1049D00005D0B04203D0B84201D0604502D14FF4B7
:1049E000007018E0DFF8108840450FD0DFF80C8821
:1049F00040450BD0DFF8008808F16008404505D03D
:104A0000DFF8F88708F16008404502D14FF4002034
:104A100001E04FF00070DFF8E087A8F14008C8F827
:104A20000C0033E0884205D0904203D0984201D078
:104A3000A04201D1082023E0A84205D0B04203D013
:104A4000B84201D0604502D14FF4007018E0DFF8A1
:104A5000A88740450FD0DFF8A48740450BD0DFF88A
:104A6000988708F16008404505D0DFF8908708F185
:104A70006008404502D14FF4002001E04FF0007083
:104A8000DFF87487A8F14008C8F80800DFF86C87E1
:104A9000D9F8000008F118084FF4807E404531D95C
:104AA000884205D0904203D0984201D0A04201D163
:104AB000042022E0A84205D0B04203D0B84201D081
:104AC000604501D1704618E0DFF82C8740450FD0D3
:104AD000DFF8288740450BD0DFF81C8708F1600815
:104AE000404505D0DFF8148708F16008404502D141
:104AF0004FF4802001E04FF08070DFF80087A8F1CC
:104B0000340836E0DFF8F08608F17808404533D9FC
:104B1000884205D0904203D0984201D0A04201D1F2
:104B2000042022E0A84205D0B04203D0B84201D010
:104B3000604501D1704618E0DFF8BC8640450FD0D3
:104B4000DFF8B88640450BD0DFF8AC8608F1600886
:104B5000404505D0DFF8A48608F16008404502D141
:104B60004FF4802001E04FF08070DFF89086A8F1CC
:104B70003808C8F800006CE0DFF87C8608F11808F7
:104B8000404533D9884205D0904203D0984201D0A5
:104B9000A04201D1042022E0A84205D0B04203D0B7
:104BA000B84201D0604501D1704618E0DFF8488670
:104BB00040450FD0DFF8448640450BD0DFF83886FB
:104BC00008F16008404505D0DFF8308608F160083C
:104BD000404502D14FF4802001E04FF08070DFF8B3
:104BE0001886A8F14008C8F80C0032E0884205D0C9
:104BF000904203D0984201D0A04201D1042022E08B
:104C0000A84205D0B04203D0B84201D0604501D1DE
:104C1000704618E0DFF8E08540450FD0DFF8DC850E
:104C200040450BD0DFF8D08508F16008404505D03D
:104C3000DFF8C88508F16008404502D14FF48020B4
:104C400001E04FF08070DFF8B085A8F14008C8F8A7
:104C50000800DFF8A885D9F8000008F118084FF41B
:104C60008039404530D9884205D0904203D09842DF
:104C700001D0A04201D1012021E0A84205D0B042DC
:104C800003D0B84201D0604501D1402017E0DFF8E1
:104C9000688540450FD0DFF8648540450BD0DFF8CC
:104CA000588508F16008404505D0DFF8508508F1C7
:104CB0006008404501D1484601E04FF48000DFF82C
:104CC0003C85A8F1340835E0DFF82C8508F1780838
:104CD000404532D9884205D0904203D0984201D055
:104CE000A04201D1012021E0A84205D0B04203D06A
:104CF000B84201D0604501D1402017E0DFF8F884C8
:104D000040450FD0DFF8F48440450BD0DFF8E8844D
:104D100008F16008404505D0DFF8E08408F160083C
:104D2000404501D1484601E04FF48000DFF8CC84D3
:104D3000A8F13808C8F800006AE0DFF8BC8408F180
:104D40001808404532D9884205D0904203D0984295
:104D500001D0A04201D1012021E0A84205D0B042FB
:104D600003D0B84201D0604501D1402017E0DFF800
:104D7000888440450FD0DFF8848440450BD0DFF8AD
:104D8000788408F16008404505D0DFF8708408F1A8
:104D90006008404501D1484601E04FF48000DFF84B
:104DA0005884A8F14008C8F80C0031E0884205D0CA
:104DB000904203D0984201D0A04201D1012021E0CD
:104DC000A84205D0B04203D0B84201D0604501D11D
:104DD000402017E0DFF8208440450FD0DFF81C8426
:104DE00040450BD0DFF8108408F16008404505D03D
:104DF000DFF8088408F16008404501D1484601E029
:104E00004FF48000DFF8F083A8F14008C8F80800EC
:104E1000FB48DFF8E883806C009008F11808006810
:104E2000404531D9884205D0904203D0984201D004
:104E3000A04201D1202022E0A84205D0B04203D0F8
:104E4000B84201D0604501D1504618E0DFF8A88390
:104E500040450FD0DFF8A48340450BD0DFF898839E
:104E600008F16008404505D0DFF8908308F160083C
:104E7000404502D14FF4001001E04FF00060DFF830
:104E80007C83A8F1340836E0DFF86C8308F17808F9
:104E9000404533D9884205D0904203D0984201D092
:104EA000A04201D1202022E0A84205D0B04203D088
:104EB000B84201D0604501D1504618E0DFF8388390
:104EC00040450FD0DFF8348340450BD0DFF828830E
:104ED00008F16008404505D0DFF8208308F160083C
:104EE000404502D14FF4001001E04FF00060DFF8C0
:104EF0000C83A8F13808C8F800006CE0DFF8F882ED
:104F000008F11808404533D9884205D0904203D0B3
:104F1000984201D0A04201D1202022E0A84205D031
:104F2000B04203D0B84201D0604501D1504618E0EC
:104F3000DFF8C48240450FD0DFF8C08240450BD077
:104F4000DFF8B48208F16008404505D0DFF8AC8294
:104F500008F16008404502D14FF4001001E04FF025
:104F60000060DFF89482A8F14008C8F80C0032E035
:104F7000884205D0904203D0984201D0A04201D18E
:104F8000202022E0A84205D0B04203D0B84201D090
:104F9000604501D1504618E0DFF85C8240450FD0F3
:104FA000DFF8588240450BD0DFF84C8208F16008EA
:104FB000404505D0DFF8448208F16008404502D141
:104FC0004FF4001001E04FF00060DFF82C82A8F1F0
:104FD0004008C8F808000098DFF820A200680AF12D
:104FE000180A504531D9884205D0904203D09842E2
:104FF00001D0A04201D1102022E0A84205D0B04249
:1050000003D0B84201D0604501D1584618E0DFF81E
:10501000E88140450FD0DFF8E48140450BD0DFF850
:10502000D88108F16008404505D0DFF8D08108F14B
:105030006008404502D14FF4801001E04FF08060DD
:10504000DFF8B881A8F1340836E0DFF8AC8108F168
:105050007808404533D9884205D0904203D0984221
:1050600001D0A04201D1102022E0A84205D0B042D8
:1050700003D0B84201D0604501D1584618E0DFF8AE
:10508000788140450FD0DFF8748140450BD0DFF8C0
:10509000688108F16008404505D0DFF8608108F1BB
:1050A0006008404502D14FF4801001E04FF080606D
:1050B000DFF84881A8F13808C8F800006CE0DFF894
:1050C000388108F11808404533D9884205D090420C
:1050D00003D0984201D0A04201D1102022E0A84282
:1050E00005D0B04203D0B84201D0604501D1584646
:1050F00018E0DFF8048140450FD0DFF8008140451B
:105100000BD0DFF8F48008F16008404505D0DFF8E7
:10511000EC8008F16008404502D14FF4801001E0B6
:105120004FF08060DFF8D080A8F14008C8F80C008C
:1051300032E0884205D0904203D0984201D0A0428C
:1051400001D1102022E0A84205D0B04203D0B842DD
:1051500001D0604501D1584618E0DFF89C804045F9
:105160000FD0DFF8988040450BD0DFF88C8008F135
:105170006008404505D0DFF8848008F160084045AC
:1051800002D14FF4801001E04FF08060DFF86880BA
:10519000A8F14008C8F8080000980068504536D9C2
:1051A000884205D0904203D0984201D0A04201D15C
:1051B000082029E0A84205D0B04203D0B84201D06F
:1051C000604502D14FF400701EE0DFF82C804045AE
:1051D0000FD0DFF8288040450BD0DFF81C8008F1A5
:1051E0006008404505D0DFF8148008F160084045AC
:1051F00008D14FF4002007E04060024040640240C4
:10520000AC0800204FF00070DFF8E88439E0DFF8E8
:10521000E884404538D9884205D0904203D098426E
:1052200001D0A04201D1082027E0A84205D0B04219
:1052300003D0B84201D0604502D14FF400701CE0A9
:10524000DFF8B484A8F17808404511D0DFF8A484D1
:1052500008F1340840450BD0DFF89C84A8F1180809
:10526000404505D0DFF88C8408F19408404502D110
:105270004FF4002001E04FF00070DFF87884A8F1CF
:105280000408C8F8000076E0DFF86C84A8F1600834
:10529000404538D9884205D0904203D0984201D089
:1052A000A04201D1082027E0A84205D0B04203D097
:1052B000B84201D0604502D14FF400701CE0DFF825
:1052C0003884A8F17808404511D0DFF8288408F127
:1052D000340840450BD0DFF82084A8F11808404579
:1052E00005D0DFF8108408F19408404502D14FF44E
:1052F000002001E04FF00070DFF8FC83A8F1B8084F
:10530000C8F80C0037E0884205D0904203D098429C
:1053100001D0A04201D1082027E0A84205D0B04228
:1053200003D0B84201D0604502D14FF400701CE0B8
:10533000DFF8C483A8F17808404511D0DFF8B483C2
:1053400008F1340840450BD0DFF8AC83A8F1180809
:10535000404505D0DFF89C8308F19408404502D110
:105360004FF4002001E04FF00070DFF88C83A8F1CB
:10537000B808C8F8080000980068504533D988423A
:1053800005D0904203D0984201D0A04201D1042020
:1053900026E0A84205D0B04203D0B84201D0604513
:1053A00001D170461CE0DFF85083A8F17808404531
:1053B00011D0DFF8408308F1340840450BD0DFF806
:1053C0003883A8F11808404505D0DFF8288308F194
:1053D0009408404502D14FF4802001E04FF08070E6
:1053E000DFF8108338E0DFF81083404537D9884272
:1053F00005D0904203D0984201D0A04201D10420B0
:1054000026E0A84205D0B04203D0B84201D06045A2
:1054100001D170461CE0DFF8E082A8F17808404531
:1054200011D0DFF8D08208F1340840450BD0DFF806
:10543000C882A8F11808404505D0DFF8B88208F105
:105440009408404502D14FF4802001E04FF0807075
:10545000DFF8A082A8F10408C8F8000074E0DFF8C3
:105460009882A8F16008404537D9884205D090421B
:1054700003D0984201D0A04201D1042026E0A842E6
:1054800005D0B04203D0B84201D0604501D170468A
:105490001CE0DFF86482A8F17808404511D0DFF8FD
:1054A000548208F1340840450BD0DFF84C82A8F153
:1054B0001808404505D0DFF83C8208F194084045C3
:1054C00002D14FF4802001E04FF08070DFF8288295
:1054D000A8F1B808C8F80C0036E0884205D0904220
:1054E00003D0984201D0A04201D1042026E0A84276
:1054F00005D0B04203D0B84201D0604501D170461A
:105500001CE0DFF8F481A8F17808404511D0DFF8FD
:10551000E48108F1340840450BD0DFF8DC81A8F1C4
:105520001808404505D0DFF8CC8108F194084045C3
:1055300002D14FF4802001E04FF08070DFF8B88195
:10554000A8F1B808C8F8080000980068504529D9A3
:10555000884205D0904203D0984201D0A04201D1A8
:1055600001201DE0A84205D0B04203D0B84201D0CE
:10557000604501D1402013E05F49783988420BD063
:105580005C493431884207D05B491839884203D0DE
:1055900058499431884201D1484601E04FF48000D7
:1055A00054492DE0DFF8508140452BD9884205D081
:1055B000904203D0984201D0A04201D101201DE0C9
:1055C000A84205D0B04203D0B84201D0604501D115
:1055D000402013E04849783988420BD0454934319E
:1055E000884207D044491839884203D04149943150
:1055F000884201D1484601E04FF480003D49091F2F
:1056000008605CE0DFF8F080A8F1600840452BD925
:10561000884205D0904203D0984201D0A04201D1E7
:1056200001201DE0A84205D0B04203D0B84201D00D
:10563000604501D1402013E02F49783988420BD0D2
:105640002C493431884207D02B491839884203D07D
:1056500028499431884201D1484601E04FF4800046
:105660002549B839C8602AE0884205D0904203D065
:10567000984201D0A04201D101201DE0A84205D0EE
:10568000B04203D0B84201D0604501D1402013E0C0
:105690001949783988420BD016493431884207D0ED
:1056A00015491839884203D012499431884201D1F2
:1056B000484601E04FF480000F49B83988600F4830
:1056C00002990268D1600E49019A0B68DA6003689A
:1056D000039A5A600B68039A5A600068026842F0A5
:1056E000010202600868016841F001010160BDE843
:1056F000FF8F00000C640240B860024004090020E3
:10570000640900202DE9F04F8346344803685C6843
:1057100044F002045C6003685C6844F001045C606F
:105720000068036843F0400303602D4803681C6869
:1057300024F001041C6003681C68E407F7D1294EBB
:10574000294C284D4C3EDFF8A0A0274FB83C4FF421
:10575000001CA6F10409AAF1600AAB4202D9C6F8FE
:1057600000C00BE0BB4202D9C9F800C006E05345B7
:1057700002D9C4F80CC001E0C4F808C0DFF86CC05E
:10578000C3F808C00368D96001684A60006801680E
:1057900041F010010160164801680B6823F0010315
:1057A0000B6001680B68DB07F7D14FF00063A9427B
:1057B00001D9336009E0B94202D9C9F8003004E0E8
:1057C000514501D9E36000E0A360C1F808C0036857
:1057D000C3F80CB000684260BDE8F08FAC08002050
:1057E0000409002058640240B86002400C300140B7
:1057F00064090020F8B515460E460B460092044693
:105800000122022100F02CF8A0B9134813490068C6
:10581000B0FBF1F04FF47A71484300906068B0F546
:10582000827F0DD13346002280212046009500F072
:1058300017F870B1606D40F0200060650320F8BD7E
:10584000009830B1401E009020688068C043000678
:10585000F6D50020F8BD00001400002000366E01CF
:105860002DE9F8431E46914688460446089DFCF7FC
:1058700095FA401B351AFCF791FA0746264800684E
:10588000C0F3CB3068430AE0701C09D0FCF786FAFD
:10589000C01BA8420FD275B10098B8B3401E00904B
:1058A0002068816838EA010033D000214945EBD1F6
:1058B0000020BDE8F8832068416821F0E0014160E4
:1058C0006068B0F5827F0BD1A068B0F5004F02D0C0
:1058D000B0F5806F04D12068016821F040010160BB
:1058E000A06AB0F5005F09D12068016821F4005179
:1058F00001602068016841F400510160012084F8D2
:105900005100002084F850000320D2E7FFE7002573
:10591000C6E70121CAE7000014000020012001F0C1
:1059200047FFFBE710B5FCF749FC03F0A7FA012895
:1059300003D0BDE8104002F089BF10BD30B593B070
:1059400030216846FAF725FE14210CA8FAF721FE4B
:105950001D480025016841F080510160006800F099
:10596000805011901948016841F48041016000683D
:10597000022400F480401190012000900004019066
:105980008001CDE9064006200890A820CDE9090451
:1059900004200B906846FCF79BFD08B172B6FEE749
:1059A0000CA90F2081E831004FF4A0500F904FF464
:1059B0008050109005210CA8FCF79EFC002801D017
:1059C00072B6FEE713B030BD4038024000700040B0
:1059D0000248016841F470010160704788ED00E001
:1059E000F0B50268274B284D284E294F294C4FF01F
:1059F000804C984209D0604507D0A84205D0B042FB
:105A000003D0B84201D0A04204D122F0700E4A68FF
:105A100042EA0E0298421BD0604519D0A84217D026
:105A2000B04215D0B84213D0A04211D01A4DA842AE
:105A30000ED01A4DA8420BD0194DA84208D0194DCE
:105A4000A84205D0184DA84202D0184DA84203D153
:105A500022F44075CA682A434D6922F080022A4325
:105A60008D68C5620D688562984201D0A04201D15F
:105A700009690163016841F004010160012141618C
:105A80000260F0BD0000014000040040000800403A
:105A9000000C00400004014000400140004401406F
:105AA0000048014000180040001C00400020004059
:105AB00010B501F01F030121046A99408C43046270
:105AC000016A9A401143016210BD10B5846842EA30
:105AD000032224F47F440A432243826010BD82687B
